:0400000007EF00F016
:0A0008003F820CED07F07BEF09F0DA
:100800000042617461206E6120706F727461006ECD
:10081000616F20636F696E636964656D00436F6E1D
:100820006669726D652073756100436164617374FC
:1008300072652073756100446573747261766164DA
:100840006121004361646173747261646100526587
:1008500070697461207375610041732073656E68FF
:1008600061730053656E68610073656E6861005066
:100870006F7274610000000E2C6E000E2B6E27C08C
:10088000D9FF28C0DAFF000EDF6E20EE01F02750FE
:10089000D9262850DA22000EDF6E25EC0AF0000E71
:1008A000196E000E186E000E1B6E000E1A6EDFEC35
:1008B00009F0010E186E080E196EE0EC08F00DD06C
:1008C0008AEC08F081B804D039043A10D8A405D0D5
:1008D000000E3A6E010E396E1200EDEC09F016BEF4
:1008E000EFD7165051E1190E155CD8B04DD0E8D7AE
:1008F000000E196E010E186E000E1B6E000E1A6EA1
:10090000DFEC09F02B50310F94EC09F02B502C1038
:10091000D8A40BD027C019F028C01AF0000E1C6E06
:10092000000E1B6ECDEC07F02DD02B042C10D8A49C
:100930000BD027C019F028C01AF0000E1C6E010E53
:100940001B6ECDEC07F01ED0020E2B182C10D8A475
:100950000DD0010E2724196E000E28201A6E000EED
:100960001C6E000E1B6ECDEC07F00CD0010E272480
:10097000196E000E28201A6E000E1C6E010E1B6EE2
:10098000CDEC07F02B4A2C2A2CBEB2D72C5004E118
:10099000040E2B5CD8A0ACD725C01EF026C01FF0DB
:1009A00027C020F028C021F09CEC06F01E501F103C
:1009B000D8B443D025EC0AF0000E196E000E186E64
:1009C000000E1B6E040E1A6EDFEC09F06F0E186E2F
:1009D000080E196EE0EC08F0000E196E010E186E8C
:1009E000000E1B6E020E1A6EDFEC09F0370E186E49
:1009F000080E196EE0EC08F03D503E10D8A412002D
:100A0000000E3E6E010E3D6E000E166E080E156E47
:100A100005EC09F0040E2A6E8E0E296E120EE82ED9
:100A2000FED7292EFCD72A2EFAD700D0000E166E3C
:100A3000000E156E05EC09F0120025EC0AF0000E10
:100A4000196E000E186E000E1B6E030E1A6EDFEC90
:100A500009F0590E186E080E196EE0EC08F0000E41
:100A6000196E010E186E000E1B6E010E1A6EDFEC71
:100A700009F00F0E186E080E196EE0EC08F0120067
:100A80009388000E2E6E000E2D6E000E306E000E3E
:100A90002F6E000E336E000E346E000E316E000E9F
:100AA000326E29C0D9FF2AC0DAFF000EDF6E20EEB9
:100AB00001F02950D9262A50DA22000EDF6E25ECEB
:100AC0000AF0000E196E000E186E000E1B6E010E5D
:100AD0001A6EDFEC09F02A0E186E080E196EE0ECA3
:100AE00008F0000E196E010E186E000E1B6E050E3A
:100AF0001A6EDFEC09F0690E186E080E196EE0EC44
:100B000008F0290E2C6E960E2B6E7F0EE82EFED767
:100B10002B2EFCD72C2EFAD700F0330E256E000EAC
:100B2000266E17EC06F025EC0AF0000E196E000E8A
:100B3000186E000E1B6E020E1A6EDFEC09F04E0EE0
:100B4000186E080E196EE0EC08F0000E196E010E1A
:100B5000186E000E1B6E050E1A6EDFEC09F0690EA2
:100B6000186E080E196EE0EC08F0290E2C6E960E29
:100B70002B6E7F0EE82EFED72B2EFCD72C2EFAD70D
:100B800000F0310E256E000E266E17EC06F0330EC7
:100B90001E6E000E1F6E310E206E000E216E9CEC3C
:100BA00006F01E501F10D8B48AD71EEC08F01E5055
:100BB0001F10D8B484D729C0D9FF2AC0DAFF33C0A8
:100BC000DFFF20EE01F02950D9262A50DA2234C066
:100BD000DFFF25EC0AF0000E196E000E186E000EF5
:100BE0001B6E060E1A6EDFEC09F0630E186E080E0F
:100BF000196EE0EC08F0000E196E010E186E000E72
:100C00001B6E030E1A6EDFEC09F0430E186E080E11
:100C1000196EE0EC08F03D0E2C6EE10E2B6E400ECE
:100C2000E82EFED72B2EFCD72C2EFAD71200000E62
:100C3000286E000E276E25C0D9FF26C0DAFF000EF1
:100C4000DF6E20EE01F02550D9262650DA22000E64
:100C5000DF6E25EC0AF0000E196E000E186E000E05
:100C60001B6E000E1A6EDFEC09F0010E186E080EF6
:100C7000196EE0EC08F0EDEC09F016BEFCD716504A
:100C800051E1190E155CD8B04DD0F5D7000E196E94
:100C9000010E186E000E1B6E000E1A6EDFEC09F0CE
:100CA0002750310F94EC09F027502810D8A40BD00E
:100CB00025C019F026C01AF0000E1C6E000E1B6E27
:100CC000CDEC07F02DD027042810D8A40BD025C0D8
:100CD00019F026C01AF0000E1C6E010E1B6ECDEC32
:100CE00007F01ED0020E27182810D8A40DD0010E30
:100CF0002524196E000E26201A6E000E1C6E000EA2
:100D00001B6ECDEC07F00CD0010E2524196E000EE1
:100D100026201A6E000E1C6E010E1B6ECDEC07F025
:100D2000274A282A28BEB2D7285005E1040E275C9E
:100D3000D8B01200ABD712001EC015F01FC016F0BD
:100D400020C017F021C018F0BAEC08F015C022F04E
:100D500016C023F022042310D8A42DD025EC0AF0CD
:100D6000000E196E000E186E000E1B6E030E1A6E2A
:100D7000DFEC09F0590E186E080E196EE0EC08F061
:100D8000000E196E010E186E000E1B6E030E1A6E09
:100D9000DFEC09F0130E186E080E196EE0EC08F087
:100DA000000E166E020E156E030E186EE80E176E0C
:100DB0006EEC07F02CD025EC0AF0000E196E000E38
:100DC000186E000E1B6E030E1A6EDFEC09F0590E42
:100DD000186E080E196EE0EC08F0000E196E010E88
:100DE000186E000E1B6E010E1A6EDFEC09F00F0E6E
:100DF000186E080E196EE0EC08F0000E166E040E68
:100E0000156E010E186EF40E176E6EEC07F022C010
:100E10001EF023C01FF012000600FACF07F0FBCF30
:100E200008F0E9CF09F0EACF0AF0E1CF0BF0E2CF0A
:100E30000CF0D9CF0DF0DACF0EF0F3CF0FF0F4CFE6
:100E400010F0F6CF11F0F7CF12F0F8CF13F0F5CF86
:100E500014F0F0A225D0F092000E3C6E010E3B6E15
:100E60003D043E10D8A41CD0000E3E6E000E3D6E18
:100E7000020E026E580E016E41EC09F0040E066E71
:100E80008E0E056E120EE82EFED7052EFCD7062E0E
:100E9000FAD700D0000E026E000E016E41EC09F090
:100EA00014C0F5FF13C0F8FF12C0F7FF11C0F6FF22
:100EB00010C0F4FF0FC0F3FF0EC0DAFF0DC0D9FF62
:100EC0000CC0E2FF0BC0E1FF0AC0EAFF09C0E9FF66
:100ED00008C0FBFF07C0FAFF3F9211009492829274
:100EE000000E1C6E000E1B6EF40E171828E118047D
:100EF000D8B41AD024D082B203D0196A192A01D0EA
:100F0000196A194682501918FD0B1918826E0B0EBA
:100F10001A6E260E196E5E0EE82EFED7192EFCD71D
:100F20001A2EFAD71B4A1C2A15501B5C1C50800A2B
:100F3000196E1650800A1958D8B01200DCD7E80E86
:100F400017182AE1030E1818D8A412001AD082B27A
:100F500003D0196A192A01D0196A19468250191842
:100F6000FD0B1918826E150E1A6E4B0E196EBE0E01
:100F7000E82EFED7192EFCD71A2EFAD700D01B4A1E
:100F80001C2A15501B5C1C50800A196E1650800AD2
:100F90001958D8B01200DBD71200000E246E000ED4
:100FA000236E1B041C10D8A404D0000E246E040E63
:100FB000236E040E23241F6E000E2420206E33D0D7
:100FC000000E226E000E216E22D0EDEC09F01650BC
:100FD00004E11A0E155CD8A010D023C01DF0030E3A
:100FE0001E6E1D2A02D0D8901E361D2EFCD719C0A9
:100FF000D9FF1AC0DAFF1E50DF12060E1D6E300E2A
:10100000E82EFED71D2EFCD700D0214A222A22BE70
:10101000DCD7F40E215C010E2258D8A0D6D7020EE0
:101020002326000E24221F50235C2450800A1D6EAC
:101030002050800A1D58D8B01200C2D725EC0AF003
:10104000000E196E000E186E000E1B6E010E1A6E49
:10105000DFEC09F01D0E186E080E196EE0EC08F0BA
:10106000000E196E010E186E000E1B6E050E1A6E24
:10107000DFEC09F0690E186E080E196EE0EC08F04E
:101080008AEC08F03B043C10D8A409D0000E3C6E5A
:10109000000E3B6E000E1F6E000E1E6E120081B819
:1010A00004D039043A10D8A4EBD7000E1F6E010EFD
:1010B000F4D703EC0AF015EC0AF0ACEC09F00CECF8
:1010C0000AF0F9EC09F0000E376E000E386E000ED3
:1010D000356E000E366E370E296E000E2A6E40EC0D
:1010E00005F0370E256E000E266E350E276E000EAB
:1010F000286E3BEC04F039043A10D8A4F2D7000E65
:101100003A6E000E396E370E296E000E2A6E40ECD4
:1011100005F0E7D721EC0AF00009D8B412001DEC65
:101120000AF01B6E1B50C1EC09F015501610D8B414
:10113000120021EC0AF00009D8B412001DEC0AF0EC
:101140001B6E1B5023EC09F015C019F016C01AF0E5
:1011500019501A10D8A405D0000E3C6E010E3B6E3B
:10116000120019041A10D8A41200000E3A6E010ED3
:10117000396E120017C0D9FF18C0DAFF15C0E1FFA1
:1011800016C0E2FFDE50E618D8A415D020EE01F01C
:101190001750D9261850DA2210EE01F01550E1262A
:1011A0001650E222DE50E618D8A405D0000E166EC6
:1011B000010E156E1200000E166E000E156E120056
:1011C000000E1D6E000E1C6E10D01C5018241A6EDE
:1011D0001D5019201B6E1AC0F6FF1BC0F7FF080038
:1011E000F55094EC09F01C4A1D2A1C5018241A6E64
:1011F0001D5019201B6E1AC0F6FF1BC0F7FF080018
:10120000F5500009D8B41200E0D715B002D0BD984F
:1012100001D0BD88D8901630186E1530176E173A69
:101220001746BD501718DF0B1718BD6E15C017F005
:1012300016C018F0D89018321732D89018321732DA
:101240001750BE6E1200186E18501C0B040AD8A45A
:1012500015D018C017F0030E1716D8A405D0000E2D
:10126000166E000E156E12001850030BE806D8A477
:1012700005D0000E166E010E156E12001568166868
:10128000120001B002D0BD9801D0BD88D8900230C4
:10129000046E0130036E033A0346BD500318DF0BA2
:1012A0000318BD6E01C003F002C004F0D8900432F0
:1012B0000332D890043203320350BE6E120084927F
:1012C000060E156E300EE82EFED7152EFCD700D078
:1012D0008482060E156E300EE82EFED7152EFCD732
:1012E00000D08492060E156E300EE82EFED7152E15
:1012F000FCD700D01200520EF66E140EF76E000EE0
:10130000F86E0900F5CF3DF00900F5CF3EF03C6ADC
:101310003B6A3A6A396A3F903F92000EF86E080EB7
:10132000F76E000159EF08F0176E17C083FF818632
:10133000060E166E300EE82EFED7162EFCD700D005
:101340005FEC09F0060E166E300EE82EFED7162E54
:10135000FCD700D081961200040E936E000E956E9D
:10136000000E966E000E836E010ED0EC09F0380E62
:10137000D0EC09F0800ED0EC09F00F0ED0EC09F0A3
:101380001200176E400E1718D8A405D0000E166E66
:10139000010E156E1200000E166E000E156E120074
:1013A000176E17C083FF81965FEC09F0060E166E6C
:1013B000300EE82EFED7162EFCD700D012001850A3
:1013C0001910D8A403D01A50800F02D01A50C00FA1
:1013D0001C6E1C50D0EC09F01200C282C2B2FED7C3
:1013E000C3CF17F0C4CF18F017C015F018C016F00F
:1013F0001200190EAF6EAC94AC98AB8E948E948C98
:10140000AB88AC8A12009494040ECA6ECB683F0E6F
:10141000BD6E000EBE6E12009280000EC26E0E0EE9
:10142000C16ED90EC06EC2801200F29EF29C9384EF
:10143000F18CF092F088F28E12009EAAFED7AE5088
:101440001200000E9EBA010E1200010ED0EC09F03F
:041450001200010085
:020000040020DA
:08000000FFFFFFFFFFFFFFFF00
:020000040030CA
:0E000000000C1F1EFF8181FF0FC00FE00F409C
:00000001FF
