:0400000007EF00F016
:0A0008002B8277ED06F0A5EF07F05C
:100800000042617461206E6120706F727461006ECD
:10081000616F20636F696E636964656D0043616435
:100820006173747265207375610046696E616C69ED
:100830007A6164610041732073656E686173004C76
:100840006569747572610073656E68610000000E01
:10085000246E000E236E1FC0D9FF20C0DAFF000EE9
:10086000DF6E20EE01F01F50D9262050DA22000E54
:10087000DF6EC1EC07F0000E136E000E126E000E5C
:10088000156E010E146E8BEC07F01D0E126E080E25
:10089000136E0EEC07F0000E136E010E126E000EBA
:1008A000156E050E146E8BEC07F0470E126E080ED7
:1008B000136E0EEC07F04CD0000E136E010E126E8C
:1008C000000E156E0F0E146E8BEC07F02350310FD7
:1008D0004FEC07F023502410D8A40BD01FC013F006
:1008E00020C014F0000E166E000E156E26EC06F0F9
:1008F0002DD023042410D8A40BD01FC013F020C087
:1009000014F0000E166E010E156E26EC06F01ED0C9
:10091000020E23182410D8A40DD0010E1F24136E2C
:10092000000E2020146E000E166E000E156E26ECC2
:1009300006F00CD0010E1F24136E000E2020146E42
:10094000000E166E010E156E26EC06F0234A242AC0
:1009500024BEB2D7245004E1040E235CD8A0ACD747
:10096000C1EC07F0000E136E000E126E000E156E35
:10097000050E146E8BEC07F03F0E126E080E136E10
:100980000EEC07F0000E136E010E126E000E156EC7
:10099000030E146E8BEC07F02A0E126E080E136E07
:1009A0000EEC07F03D0E226EE10E216E400EE82E99
:1009B000FED7212EFCD7222EFAD71200000E226E6F
:1009C000000E216E1FC0D9FF20C0DAFF000EDF6EBF
:1009D00020EE01F01F50D9262050DA22000EDF6EE3
:1009E000C1EC07F0000E136E000E126E000E156EB5
:1009F000000E146E8BEC07F0010E126E080E136ED3
:100A00000EEC07F04CD0000E136E010E126E000EAD
:100A1000156E000E146E8BEC07F02150310F4FEC69
:100A200007F021502210D8A40BD01FC013F020C013
:100A300014F0000E166E000E156E26EC06F02DD08A
:100A400021042210D8A40BD01FC013F020C014F032
:100A5000000E166E010E156E26EC06F01ED0020E6C
:100A600021182210D8A40DD0010E1F24136E000EE1
:100A70002020146E000E166E000E156E26EC06F089
:100A80000CD0010E1F24136E000E2020146E000ED9
:100A9000166E010E156E26EC06F0214A222A22BEA1
:100AA000B2D7225005E1040E215CD8B01200ABD7BA
:100AB000120018C00FF019C010F01AC011F01BC0BE
:100AC00012F0E8EC06F00FC01CF010C01DF01C0482
:100AD0001D10D8A42DD0C1EC07F0000E136E000E2F
:100AE000126E000E156E030E146E8BEC07F0350EB1
:100AF000126E080E136E0EEC07F0000E136E010E50
:100B0000126E000E156E030E146E8BEC07F0130EB2
:100B1000126E080E136E0EEC07F0000E106E020E31
:100B20000F6E030E126EE80E116EC5EC05F012008A
:100B3000C1EC07F0000E136E000E126E000E156E63
:100B4000030E146E8BEC07F0350E126E080E136E4A
:100B50000EEC07F0000E136E010E126E000E156EF5
:100B6000010E146E8BEC07F00F0E126E080E136E52
:100B70000EEC07F0000E106E040E0F6E010E126EDA
:100B8000F40E116EC5EC05F0120094948294000EE0
:100B9000166E000E156EF40E111829E11204D8B469
:100BA0001BD025D082B403D0136A132A01D0136A54
:100BB0001346134682501318FB0B1318826E0B0E4C
:100BC000146E260E136E5E0EE82EFED7132EFCD783
:100BD000142EFAD7154A162A0F50155C1650800AA3
:100BE000136E1050800A1358D8B01200DBD7E80EED
:100BF00011182BE1030E1218D8A412001BD082B4D6
:100C000003D0136A132A01D0136A13461346825085
:100C10001318FB0B1318826E150E146E4B0E136E09
:100C2000BE0EE82EFED7132EFCD7142EFAD700D016
:100C3000154A162A0F50155C1650800A136E105074
:100C4000800A1358D8B01200DAD71200000E1E6EB8
:100C5000000E1D6E15041610D8A404D0000E1E6ED2
:100C6000040E1D6E040E1D24196E000E1E201A6E39
:100C700033D0000E1C6E000E1B6E22D099EC07F0D4
:100C8000105004E10A0E0F5CD8A010D01DC017F060
:100C9000030E186E172A02D0D8901836172EFCD7DC
:100CA00013C0D9FF14C0DAFF1850DF12060E176EFA
:100CB000300EE82EFED7172EFCD700D01B4A1C2A78
:100CC0001CBEDCD7F40E1B5C010E1C58D8A0D6D776
:100CD000020E1D26000E1E2219501D5C1E50800A99
:100CE000176E1A50800A1758D8B01200C2D70600E3
:100CF000FACF01F0FBCF02F0E9CF03F0EACF04F026
:100D0000E1CF05F0E2CF06F0D9CF07F0DACF08F057
:100D1000F3CF09F0F4CF0AF0F6CF0BF0F7CF0CF0D9
:100D2000F8CF0DF0F5CF0EF0F0A205D0F092000E46
:100D30002A6E010E296E0EC0F5FF0DC0F8FF0CC023
:100D4000F7FF0BC0F6FF0AC0F4FF09C0F3FF08C0AD
:100D5000DAFF07C0D9FF06C0E2FF05C0E1FF04C00B
:100D6000EAFF03C0E9FF02C0FBFF01C0FAFF2B92BC
:100D70001100B9EC07F067EC07F0B0EC07F0000EDB
:100D8000276E000E286E000E256E000E266E270EB2
:100D90001F6E000E206E27EC04F0250E1F6E000E55
:100DA000206EDEEC04F0270E186E000E196E250E74
:100DB0001A6E000E1B6E59EC05F029042A10D8A4F7
:100DC000ECD7270E1F6E000E206E27EC04F0E5D73F
:100DD00011C0D9FF12C0DAFF0FC0E1FF10C0E2FF5F
:100DE000DE50E618D8A415D020EE01F01150D92617
:100DF0001250DA2210EE01F00F50E1261050E222DC
:100E0000DE50E618D8A405D0000E106E010E0F6E4D
:100E10001200000E106E000E0F6E1200000E176E04
:100E2000000E166E10D016501224146E1750132098
:100E3000156E14C0F6FF15C0F7FF0800F5504FEC13
:100E400007F0164A172A16501224146E1750132052
:100E5000156E14C0F6FF15C0F7FF0800F550000925
:100E6000D8B41200E0D78492060E0F6E300EE82E32
:100E7000FED70F2EFCD700D08482060E0F6E300EE8
:100E8000E82EFED70F2EFCD700D08492060E0F6EF0
:100E9000300EE82EFED70F2EFCD700D01200116EB8
:100EA00011C083FF8186060E106E300EE82EFED72D
:100EB000102EFCD700D033EC07F0060E106E300E6B
:100EC000E82EFED7102EFCD700D081961200040E1B
:100ED000936E000E956E000E966E000E836E010EE0
:100EE0007CEC07F0380E7CEC07F0800E7CEC07F011
:100EF0000F0E7CEC07F01200116E11C083FF81967B
:100F000033EC07F0060E106E300EE82EFED7102ED2
:100F1000FCD700D0120012501310D8A403D01450E4
:100F2000800F02D01450C00F166E16507CEC07F0E4
:100F30001200C282C2B2FED7C3CF11F0C4CF12F0EA
:100F400011C00FF012C010F012002A6A296A2B900B
:100F50002B92000EF86E080EF76E0001B9EF06F046
:100F60009280000EC26E0E0EC16ED90EC06EC2808F
:100F70001200F29EF29C9384F18CF092F088F28E33
:0A0F80001200010E7CEC07F01200D5
:020000040020DA
:08000000FFFFFFFFFFFFFFFF00
:020000040030CA
:0E000000000C1F1EFF8181FF0FC00FE00F409C
:00000001FF
