:0400000007EF00F016
:0A0008003F820CED07F0F3EF09F062
:100800000042617461206E6120706F727461006ECD
:10081000616F20636F696E636964656D00436F6E1D
:100820006669726D652073756100436164617374FC
:1008300072652073756100446573747261766164DA
:100840006121004361646173747261646100526587
:1008500070697461207375610041732073656E68FF
:1008600061730053656E68610073656E6861005066
:100870006F7274610000000E2C6E000E2B6E27C08C
:10088000D9FF28C0DAFF000EDF6E20EE01F02750FE
:10089000D9262850DA22000EDF6E9DEC0AF0000EF9
:1008A000196E000E186E000E1B6E000E1A6E57ECBD
:1008B0000AF0010E186E080E196E58EC09F00DD0F2
:1008C000D5EC08F081B804D039043A10D8A405D08A
:1008D000000E3A6E010E396E120065EC0AF016BE7B
:1008E000EFD7165051E1190E155CD8B04DD0E8D7AE
:1008F000000E196E010E186E000E1B6E000E1A6EA1
:1009000057EC0AF02B50310F0CEC0AF02B502C1046
:10091000D8A40BD027C019F028C01AF0000E1C6E06
:10092000000E1B6ECDEC07F02DD02B042C10D8A49C
:100930000BD027C019F028C01AF0000E1C6E010E53
:100940001B6ECDEC07F01ED0020E2B182C10D8A475
:100950000DD0010E2724196E000E28201A6E000EED
:100960001C6E000E1B6ECDEC07F00CD0010E272480
:10097000196E000E28201A6E000E1C6E010E1B6EE2
:10098000CDEC07F02B4A2C2A2CBEB2D72C5004E118
:10099000040E2B5CD8A0ACD725C01EF026C01FF0DB
:1009A00027C020F028C021F09CEC06F01E501F103C
:1009B000D8B443D09DEC0AF0000E196E000E186EEC
:1009C000000E1B6E040E1A6E57EC0AF06F0E186EB6
:1009D000080E196E58EC09F0000E196E010E186E13
:1009E000000E1B6E020E1A6E57EC0AF0370E186ED0
:1009F000080E196E58EC09F03D503E10D8A41200B4
:100A0000000E3E6E010E3D6E000E166E080E156E47
:100A10007DEC09F0040E2A6E8E0E296E120EE82E61
:100A2000FED7292EFCD72A2EFAD700D0000E166E3C
:100A3000000E156E7DEC09F012009DEC0AF0000E20
:100A4000196E000E186E000E1B6E030E1A6E57EC18
:100A50000AF0590E186E080E196E58EC09F0000EC7
:100A6000196E010E186E000E1B6E010E1A6E57ECF9
:100A70000AF00F0E186E080E196E58EC09F01200ED
:100A80009388000E2E6E000E2D6E000E306E000E3E
:100A90002F6E000E336E000E346E000E316E000E9F
:100AA000326E29C0D9FF2AC0DAFF000EDF6E20EEB9
:100AB00001F02950D9262A50DA22000EDF6E9DEC73
:100AC0000AF0000E196E000E186E000E1B6E010E5D
:100AD0001A6E57EC0AF02A0E186E080E196E58ECB2
:100AE00009F0000E196E010E186E000E1B6E050E39
:100AF0001A6E57EC0AF0690E186E080E196E58EC53
:100B000009F0290E2C6E960E2B6E7F0EE82EFED766
:100B10002B2EFCD72C2EFAD700F0330E256E000EAC
:100B2000266E17EC06F09DEC0AF0000E196E000E12
:100B3000186E000E1B6E020E1A6E57EC0AF04E0E67
:100B4000186E080E196E58EC09F0000E196E010EA1
:100B5000186E000E1B6E050E1A6E57EC0AF0690E29
:100B6000186E080E196E58EC09F0290E2C6E960EB0
:100B70002B6E7F0EE82EFED72B2EFCD72C2EFAD70D
:100B800000F0310E256E000E266E17EC06F0330EC7
:100B90001E6E000E1F6E310E206E000E216E9CEC3C
:100BA00006F01E501F10D8B48AD79AEC08F01E50D9
:100BB0001F10D8B484D729C0D9FF2AC0DAFF33C0A8
:100BC000DFFF20EE01F02950D9262A50DA2234C066
:100BD000DFFF9DEC0AF0000E196E000E186E000E7D
:100BE0001B6E060E1A6E57EC0AF0630E186E080E96
:100BF000196E58EC09F0000E196E010E186E000EF9
:100C00001B6E030E1A6E57EC0AF0430E186E080E98
:100C1000196E58EC09F03D0E2C6EE10E2B6E400E55
:100C2000E82EFED72B2EFCD72C2EFAD71200000E62
:100C3000286E000E276E25C0D9FF26C0DAFF000EF1
:100C4000DF6E20EE01F02550D9262650DA22000E64
:100C5000DF6E9DEC0AF0000E196E000E186E000E8D
:100C60001B6E000E1A6E57EC0AF0010E186E080E7D
:100C7000196E58EC09F065EC0AF016BEFCD7165058
:100C800051E1190E155CD8B04DD0F5D7000E196E94
:100C9000010E186E000E1B6E000E1A6E57EC0AF055
:100CA0002750310F0CEC0AF027502810D8A40BD095
:100CB00025C019F026C01AF0000E1C6E000E1B6E27
:100CC000CDEC07F02DD027042810D8A40BD025C0D8
:100CD00019F026C01AF0000E1C6E010E1B6ECDEC32
:100CE00007F01ED0020E27182810D8A40DD0010E30
:100CF0002524196E000E26201A6E000E1C6E000EA2
:100D00001B6ECDEC07F00CD0010E2524196E000EE1
:100D100026201A6E000E1C6E010E1B6ECDEC07F025
:100D2000274A282A28BEB2D7285005E1040E275C9E
:100D3000D8B01200ABD712001EC015F01FC016F0BD
:100D400020C017F021C018F032EC09F015C022F0D5
:100D500016C023F022042310D8A42DD09DEC0AF055
:100D6000000E196E000E186E000E1B6E030E1A6E2A
:100D700057EC0AF0590E186E080E196E58EC09F06F
:100D8000000E196E010E186E000E1B6E030E1A6E09
:100D900057EC0AF0130E186E080E196E58EC09F095
:100DA000000E166E020E156E030E186EE80E176E0C
:100DB0006EEC07F02CD09DEC0AF0000E196E000EC0
:100DC000186E000E1B6E030E1A6E57EC0AF0590EC9
:100DD000186E080E196E58EC09F0000E196E010E0F
:100DE000186E000E1B6E010E1A6E57EC0AF00F0EF5
:100DF000186E080E196E58EC09F0000E166E040EEF
:100E0000156E010E186EF40E176E6EEC07F022C010
:100E10001EF023C01FF012000600FACF07F0FBCF30
:100E200008F0E9CF09F0EACF0AF0E1CF0BF0E2CF0A
:100E30000CF0D9CF0DF0DACF0EF0F3CF0FF0F4CFE6
:100E400010F0F6CF11F0F7CF12F0F8CF13F0F5CF86
:100E500014F0F0A225D0F092000E3C6E010E3B6E15
:100E60003D043E10D8A41CD0000E3E6E000E3D6E18
:100E7000020E026E580E016EB9EC09F0040E066EF9
:100E80008E0E056E120EE82EFED7052EFCD7062E0E
:100E9000FAD700D0000E026E000E016EB9EC09F018
:100EA00014C0F5FF13C0F8FF12C0F7FF11C0F6FF22
:100EB00010C0F4FF0FC0F3FF0EC0DAFF0DC0D9FF62
:100EC0000CC0E2FF0BC0E1FF0AC0EAFF09C0E9FF66
:100ED00008C0FBFF07C0FAFF3F9211009492829274
:100EE000000E1C6E000E1B6EF40E171828E118047D
:100EF000D8B41AD024D082B203D0196A192A01D0EA
:100F0000196A194682501918FD0B1918826E0B0EBA
:100F10001A6E260E196E5E0EE82EFED7192EFCD71D
:100F20001A2EFAD71B4A1C2A15501B5C1C50800A2B
:100F3000196E1650800A1958D8B01200DCD7E80E86
:100F400017182AE1030E1818D8A412001AD082B27A
:100F500003D0196A192A01D0196A19468250191842
:100F6000FD0B1918826E150E1A6E4B0E196EBE0E01
:100F7000E82EFED7192EFCD71A2EFAD700D01B4A1E
:100F80001C2A15501B5C1C50800A196E1650800AD2
:100F90001958D8B01200DBD71200000E246E000ED4
:100FA000236E1B041C10D8A404D0000E246E040E63
:100FB000236E040E23241F6E000E2420206E33D0D7
:100FC000000E226E000E216E22D065EC0AF0165043
:100FD00004E11A0E155CD8A010D023C01DF0030E3A
:100FE0001E6E1D2A02D0D8901E361D2EFCD719C0A9
:100FF000D9FF1AC0DAFF1E50DF12060E1D6E300E2A
:10100000E82EFED71D2EFCD700D0214A222A22BE70
:10101000DCD7F40E215C010E2258D8A0D6D7020EE0
:101020002326000E24221F50235C2450800A1D6EAC
:101030002050800A1D58D8B01200C2D7000E1D6E75
:10104000000E1E6E000E1F6E000E206E19501A103C
:101050001B101C10D8B42AD0010E216E06D0D890D7
:1010600019361A361B361C36212A1CAEF8D7D890F2
:101070001D361E361F3620361950155C1A5016586C
:101080001B5017581C501858D8A009D01950155E7D
:101090001A50165A1B50175A1C50185A1D80D890B7
:1010A0001C321B321A321932212EE1D71DC015F025
:1010B0001EC016F01FC017F020C018F012007BEC05
:1010C0000AF08DEC0AF024EC0AF084EC0AF071ECE2
:1010D0000AF0800E226E1A0E236E060E246E000E8B
:1010E000256E05EC09F0000E376E000E386E000E0E
:1010F000356E000E366E370E296E000E2A6E40ECED
:1011000005F0370E256E000E266E350E276E000E8A
:10111000286E3BEC04F039043A10D8A4F2D7000E44
:101120003A6E000E396E370E296E000E2A6E40ECB4
:1011300005F0E7D79DEC0AF0000E196E000E186E50
:10114000000E1B6E010E1A6E57EC0AF01D0E186E83
:10115000080E196E58EC09F0000E196E010E186E8B
:10116000000E1B6E050E1A6E57EC0AF0690E186E13
:10117000080E196E58EC09F0D5EC08F03B043C1051
:10118000D8A409D0000E3C6E000E3B6E000E1F6E00
:10119000000E1E6E120081B804D039043A10D8A493
:1011A000EBD7000E1F6E010EF4D799EC0AF0000980
:1011B000D8B4120095EC0AF01B6E1B5039EC0AF003
:1011C00015501610D8B4120099EC0AF00009D8B4E2
:1011D000120095EC0AF01B6E1B509BEC09F015C039
:1011E00019F016C01AF019501A10D8A405D0000E24
:1011F0003C6E010E3B6E120019041A10D8A41200A6
:10120000000E3A6E010E396E1200280EC66E000EE8
:10121000C56E000E156E240E166EF40E176E000EBF
:10122000186E22C026F023C027F024C028F025C065
:1012300029F0020ED8902636273628362936E82E91
:10124000F9D726C019F027C01AF028C01BF029C012
:101250001CF01EEC08F01504C86E000EC76E9392C9
:101260009390120017C0D9FF18C0DAFF15C0E1FF34
:1012700016C0E2FFDE50E618D8A415D020EE01F02B
:101280001750D9261850DA2210EE01F01550E12639
:101290001650E222DE50E618D8A405D0000E166ED5
:1012A000010E156E1200000E166E000E156E120065
:1012B000000E1D6E000E1C6E10D01C5018241A6EED
:1012C0001D5019201B6E1AC0F6FF1BC0F7FF080047
:1012D000F5500CEC0AF01C4A1D2A1C5018241A6EFA
:1012E0001D5019201B6E1AC0F6FF1BC0F7FF080027
:1012F000F5500009D8B41200E0D715B002D0BD985F
:1013000001D0BD88D8901630186E1530176E173A78
:101310001746BD501718DF0B1718BD6E15C017F014
:1013200016C018F0D89018321732D89018321732E9
:101330001750BE6E1200186E18501C0B040AD8A469
:1013400015D018C017F0030E1716D8A405D0000E3C
:10135000166E000E156E12001850030BE806D8A486
:1013600005D0000E166E010E156E12001568166877
:10137000120001B002D0BD9801D0BD88D8900230D3
:10138000046E0130036E033A0346BD500318DF0BB1
:101390000318BD6E01C003F002C004F0D8900432FF
:1013A0000332D890043203320350BE6E120084928E
:1013B000060E156E300EE82EFED7152EFCD700D087
:1013C0008482060E156E300EE82EFED7152EFCD741
:1013D00000D08492060E156E300EE82EFED7152E24
:1013E000FCD700D01200420EF66E150EF76E000EFE
:1013F000F86E0900F5CF3DF00900F5CF3EF03C6AEC
:101400003B6A3A6A396A3F903F92000EF86E080EC6
:10141000F76E00015FEF08F0176E17C083FF81863B
:10142000060E166E300EE82EFED7162EFCD700D014
:10143000D7EC09F0060E166E300EE82EFED7162EEB
:10144000FCD700D081961200040E936E000E956EAC
:10145000000E966E000E836E010E48EC0AF0380EF8
:1014600048EC0AF0800E48EC0AF00F0E48EC0AF047
:101470001200176E400E1718D8A405D0000E166E75
:10148000010E156E1200000E166E000E156E120083
:10149000176E17C083FF8196D7EC09F0060E166E03
:1014A000300EE82EFED7162EFCD700D012001850B2
:1014B0001910D8A403D01A50800F02D01A50C00FB0
:1014C0001C6E1C5048EC0AF01200C282C2B2FED759
:1014D000C3CF17F0C4CF18F017C015F018C016F01E
:1014E0001200190EAF6EAC94AC98AB8E948E948CA7
:1014F000AB88AC8A12009494040ECA6ECB683F0E7F
:10150000BD6E000EBE6E12009280000EC26E0E0EF8
:10151000C16ED90EC06EC2801200F29EF29C9384FE
:10152000F18CF092F088F28E12009EAAFED7AE5097
:101530001200000E9EBA010E1200010E48EC0AF0D5
:041540001200010094
:020000040020DA
:08000000FFFFFFFFFFFFFFFF00
:020000040030CA
:0E000000000C1F1EFF8181FF0FC00FE00F409C
:00000001FF
