:0400000007EF00F016
:0A00080029826AED06F069EF07F0A7
:1008000000756E646F73207061726120626174653F
:100810007200566F63652074656D203520736567BF
:100820002D00426F74616F20617065727461646F36
:100830000042617461206E6120706F727461006E9D
:10084000616F20636F696E636964656D0046696EF0
:10085000616C697A6164610041732073656E6861DF
:0B08600073004C656974757261000044
:10086C0087EC07F02BEC07F074EC07F07EEC07F04C
:10087C009494000E266E000E256E8FEC07F0000E81
:10088C00216E000E226E000E236E000E246E120ED0
:10089C00126E080E136ED2EC06F0000E136E010EE3
:1008AC00126E000E156E000E146E4FEC07F0010E5A
:1008BC00126E080E136ED2EC06F03D0E206EE10E99
:1008CC001F6E400EE82EFED71F2EFCD7202EFAD717
:1008DC0040D08FEC07F02550310F13EC07F025506A
:1008EC002610D8A40BD0210E136E000E146E000E21
:1008FC00166E000E156E19EC06F029D02504261084
:10090C00D8A40BD0210E136E000E146E000E166EB2
:10091C00010E156E19EC06F01AD0020E25182610D1
:10092C00D8A40BD0220E136E000E146E000E166E91
:10093C00000E156E19EC06F00AD0220E136E000E86
:10094C00146E000E166E010E156E19EC06F0254A8B
:10095C00262A26BEBED7265004E1040E255CD8A05C
:10096C00B8D7000E266E000E256E8FEC07F0000E29
:10097C00136E000E126E000E156E050E146E4FECFB
:10098C0007F0620E126E080E136ED2EC06F0000E1B
:10099C00136E010E126E000E156E030E146E4FECDC
:1009AC0007F04D0E126E080E136ED2EC06F03D0ED3
:1009BC00206EE10E1F6E400EE82EFED71F2EFCD7C8
:1009CC00202EFAD78FEC07F0000E136E000E126E6D
:1009DC00000E156E000E146E4FEC07F0310E126EF9
:1009EC00080E136ED2EC06F03D0E206EE10E1F6E5B
:1009FC00400EE82EFED71F2EFCD7202EFAD7000E65
:100A0C00236E000E246E40D08FEC07F02550310F72
:100A1C0013EC07F025502610D8A40BD0230E136E20
:100A2C00000E146E000E166E000E156E19EC06F00C
:100A3C0029D025042610D8A40BD0230E136E000E3B
:100A4C00146E000E166E010E156E19EC06F01AD00F
:100A5C00020E25182610D8A40BD0240E136E000EEF
:100A6C00146E000E166E000E156E19EC06F00AD000
:100A7C00240E136E000E146E000E166E010E156E03
:100A8C0019EC06F0254A262A26BEBED7265004E1CC
:100A9C00040E255CD8A0B8D7000E266E000E256E6D
:100AAC00210E0F6E000E106E230E116E000E126EC4
:100ABC00ACEC06F00FC025F010C026F02504261073
:100ACC00D8A43DD08FEC07F0000E136E000E126E02
:100ADC00000E156E030E146E4FEC07F0580E126ECE
:100AEC00080E136ED2EC06F0000E136E010E126E91
:100AFC00000E156E030E146E4FEC07F0430E126EC3
:100B0C00080E136ED2EC06F08284150E206E4B0E7E
:100B1C001F6EBE0EE82EFED71F2EFCD7202EFAD746
:100B2C0000D08294150E206E4B0E1F6EBE0EE82E5A
:100B3C00FED71F2EFCD7202EFAD700D052D08FEC28
:100B4C0007F0000E136E000E126E000E156E030EE3
:100B5C00146E4FEC07F0580E126E080E136ED2EC9A
:100B6C0006F0000E136E010E126E000E156E020EC4
:100B7C00146E4FEC07F03F0E126E080E136ED2EC93
:100B8C0006F082840B0E206E260E1F6E5E0EE82E73
:100B9C00FED71F2EFCD7202EFAD782940B0E206E78
:100BAC00260E1F6E5E0EE82EFED71F2EFCD7202EB3
:100BBC00FAD782840B0E206E260E1F6E5E0EE82E68
:100BCC00FED71F2EFCD7202EFAD782940B0E206E48
:100BDC00260E1F6E5E0EE82EFED71F2EFCD7202E83
:100BEC00FAD78294000E266E000E256E270428106C
:100BFC00D8A4E8D68FEC07F0220E126E080E136EF6
:100C0C00D2EC06F0290E206E960E1F6E7F0EE82E8B
:100C1C00FED71F2EFCD7202EFAD700F0000E286E20
:100C2C00000E276ECFD6000E1E6E000E1D6E150424
:100C3C001610D8A404D0000E1E6E040E1D6E040EE9
:100C4C001D24196E000E1E201A6E33D0000E1C6E61
:100C5C00000E1B6E22D05DEC07F0105004E10A0E62
:100C6C000F5CD8A010D01DC017F0030E186E172AF9
:100C7C0002D0D8901836172EFCD713C0D9FF14C049
:100C8C00DAFF1850DF12060E176E300EE82EFED764
:100C9C00172EFCD700D01B4A1C2A1CBEDCD7F40E26
:100CAC001B5C010E1C58D8A0D6D7020E1D26000EB8
:100CBC001E2219501D5C1E50800A176E1A50800A95
:100CCC001758D8B01200C2D70600FACF01F0FBCFEC
:100CDC0002F0E9CF03F0EACF04F0E1CF05F0E2CF68
:100CEC0006F0D9CF07F0DACF08F0F3CF09F0F4CF44
:100CFC000AF0F6CF0BF0F7CF0CF0F8CF0DF0F5CFE4
:100D0C000EF0F0A205D0F092000E286E010E276EA8
:100D1C000EC0F5FF0DC0F8FF0CC0F7FF0BC0F6FFBF
:100D2C000AC0F4FF09C0F3FF08C0DAFF07C0D9FFFF
:100D3C0006C0E2FF05C0E1FF04C0EAFF03C0E9FF03
:100D4C0002C0FBFF01C0FAFF2992110011C0D9FFAC
:100D5C0012C0DAFF0FC0E1FF10C0E2FFDE50E61850
:100D6C00D8A415D020EE01F01150D9261250DA2259
:100D7C0010EE01F00F50E1261050E222DE50E61882
:100D8C00D8A405D0000E106E010E0F6E1200000ECE
:100D9C00106E000E0F6E1200000E176E000E166E07
:100DAC0010D016501224146E17501320156E14C048
:100DBC00F6FF15C0F7FF0800F55013EC07F0164AC4
:100DCC00172A16501224146E17501320156E14C0C7
:100DDC00F6FF15C0F7FF0800F5500009D8B4120053
:100DEC00E0D78492060E0F6E300EE82EFED70F2E33
:100DFC00FCD700D08482060E0F6E300EE82EFED784
:100E0C000F2EFCD700D08492060E0F6E300EE82EFB
:100E1C00FED70F2EFCD700D01200116E11C083FF2D
:100E2C008186060E106E300EE82EFED7102EFCD7E3
:100E3C0000D0F7EC06F0060E106E300EE82EFED742
:100E4C00102EFCD700D081961200040E936E000E6B
:100E5C00956E000E966E000E836E010E40EC07F040
:100E6C00380E40EC07F0800E40EC07F00F0E40EC13
:100E7C0007F01200116E11C083FF8196F7EC06F09B
:100E8C00060E106E300EE82EFED7102EFCD700D0BA
:100E9C00120012501310D8A403D01450800F02D09B
:100EAC001450C00F166E165040EC07F01200C282A0
:100EBC00C2B2FED7C3CF11F0C4CF12F011C00FF0E5
:100ECC0012C010F01200286A276A29902992000E8D
:100EDC00F86E080EF76E000136EF04F00C0EAF6ED4
:100EEC00AC94AC98AB8E948E948CAB88AC8A12007C
:100EFC009280000EC26E0E0EC16ED90EC06EC280F4
:100F0C001200F29EF29C9384F18CF092F088F28E97
:0A0F1C001200010E40EC07F0120075
:020000040020DA
:08000000FFFFFFFFFFFFFFFF00
:020000040030CA
:0E000000000C1F1EFF8181FF0FC00FE00F409C
:00000001FF
