:0400000007EF00F016
:0A0008003582A9ED07F00AEF09F0B8
:100800000042617461206E6120706F727461006ECD
:10081000616F20636F696E636964656D00436F6E1D
:100820006669726D652073756100436164617374FC
:1008300072652073756100446573747261766164DA
:100840006121004361646173747261646100526587
:1008500070697461207375610041732073656E68FF
:1008600061730053656E68610073656E6861005066
:100870006F7274610000000E246E000E236E21C0A2
:10088000D9FF22C0DAFF000EDF6E20EE01F021500A
:10089000D9262250DA22000EDF6E26EC09F0000E77
:1008A000136E000E126E000E156E000E146EF0EC3C
:1008B00008F0010E126E080E136E73EC08F004D0EF
:1008C00033043410D8B41200FEEC08F010BEF8D790
:1008D000105051E10F0E0F5CD8B04DD0F1D7000E83
:1008E000136E010E126E000E156E000E146EF0ECFB
:1008F00008F02350310FB4EC08F023502410D8A492
:100900000BD021C013F022C014F0000E166E000EA2
:10091000156E58EC07F02DD023042410D8A40BD06A
:1009200021C013F022C014F0000E166E010E156ED9
:1009300058EC07F01ED0020E23182410D8A40DD0B6
:10094000010E2124136E000E2220146E000E166E6E
:10095000000E156E58EC07F00CD0010E2124136E1A
:10096000000E2220146E000E166E010E156E58EC4D
:1009700007F0234A242A24BEB2D7245004E1040EEF
:10098000235CD8A0ACD71FC018F020C019F021C03C
:100990001AF022C01BF087EC06F018501910D8B4DA
:1009A0002DD026EC09F0000E136E000E126E000E14
:1009B000156E010E146EF0EC08F06F0E126E080E3C
:1009C000136E73EC08F0000E136E010E126E000E23
:1009D000156E020E146EF0EC08F0370E126E080E53
:1009E000136E73EC08F0000E106E020E0F6E030E05
:1009F000126EE80E116EF7EC06F0120026EC09F00C
:100A0000000E136E000E126E000E156E030E146EA5
:100A1000F0EC08F0590E126E080E136E73EC08F02D
:100A2000000E136E010E126E000E156E010E146E86
:100A3000F0EC08F00F0E126E080E136E73EC08F057
:100A4000000E106E040E0F6E010E126EF40E116E7B
:100A5000F7EC06F012009388000E286E000E276E49
:100A6000000E2A6E000E296E000E2D6E000E2E6EE8
:100A7000000E2B6E000E2C6E23C0D9FF24C0DAFFAF
:100A8000000EDF6E20EE01F02350D9262450DA222A
:100A9000000EDF6E26EC09F0000E136E000E126ED3
:100AA000000E156E010E146EF0EC08F02A0E126E98
:100AB000080E136E73EC08F0000E136E010E126E2A
:100AC000000E156E050E146EF0EC08F0690E126E35
:100AD000080E136E73EC08F0290E266E960E256E26
:100AE0007F0EE82EFED7252EFCD7262EFAD700F053
:100AF0002D0E1F6E000E206E02EC06F026EC09F0A3
:100B0000000E136E000E126E000E156E020E146EA5
:100B1000F0EC08F04E0E126E080E136E73EC08F037
:100B2000000E136E010E126E000E156E050E146E81
:100B3000F0EC08F0690E126E080E136E73EC08F0FC
:100B4000290E266E960E256E7F0EE82EFED7252ED8
:100B5000FCD7262EFAD700F02B0E1F6E000E206E4B
:100B600002EC06F02D0E186E000E196E2B0E1A6E8A
:100B7000000E1B6E87EC06F018501910D8B48AD7F7
:100B8000EBEC07F018501910D8B484D723C0D9FF64
:100B900024C0DAFF2DC0DFFF20EE01F02350D9265C
:100BA0002450DA222EC0DFFF26EC09F0000E136E6F
:100BB000000E126E000E156E060E146EF0EC08F0AC
:100BC000630E126E080E136E73EC08F0000E136EB7
:100BD000010E126E000E156E030E146EF0EC08F08E
:100BE000430E126E080E136E73EC08F03D0E266E67
:100BF000E10E256E400EE82EFED7252EFCD7262EC0
:100C0000FAD71200000E226E000E216E1FC0D9FF0F
:100C100020C0DAFF000EDF6E20EE01F01F50D92653
:100C20002050DA22000EDF6E26EC09F0000E136E63
:100C3000000E126E000E156E000E146EF0EC08F031
:100C4000010E126E080E136E73EC08F0FEEC08F045
:100C500010BEFCD7105051E10F0E0F5CD8B04DD034
:100C6000F5D7000E136E010E126E000E156E000EFB
:100C7000146EF0EC08F02150310FB4EC08F0215064
:100C80002210D8A40BD01FC013F020C014F0000E07
:100C9000166E000E156E58EC07F02DD021042210B0
:100CA000D8A40BD01FC013F020C014F0000E166E95
:100CB000010E156E58EC07F01ED0020E21182210FE
:100CC000D8A40DD0010E1F24136E000E2020146E28
:100CD000000E166E000E156E58EC07F00CD0010ECB
:100CE0001F24136E000E2020146E000E166E010ECF
:100CF000156E58EC07F0214A222A22BEB2D72250A4
:100D000005E1040E215CD8B01200ABD7120018C068
:100D10000FF019C010F01AC011F01BC012F04DEC0A
:100D200008F00FC01CF010C01DF01C041D10D8A44A
:100D30002DD026EC09F0000E136E000E126E000E80
:100D4000156E030E146EF0EC08F0590E126E080EBC
:100D5000136E73EC08F0000E136E010E126E000E8F
:100D6000156E030E146EF0EC08F0130E126E080EE2
:100D7000136E73EC08F0000E106E020E0F6E030E71
:100D8000126EE80E116EF7EC06F02CD026EC09F08E
:100D9000000E136E000E126E000E156E030E146E12
:100DA000F0EC08F0590E126E080E136E73EC08F09A
:100DB000000E136E010E126E000E156E010E146EF3
:100DC000F0EC08F00F0E126E080E136E73EC08F0C4
:100DD000000E106E040E0F6E010E126EF40E116EE8
:100DE000F7EC06F01CC018F01DC019F01200949426
:100DF0008294000E166E000E156EF40E111829E185
:100E00001204D8B41BD025D082B403D0136A132A9D
:100E100001D0136A1346134682501318FB0B1318A4
:100E2000826E0B0E146E260E136E5E0EE82EFED72B
:100E3000132EFCD7142EFAD7154A162A0F50155C1C
:100E40001650800A136E1050800A1358D8B0120042
:100E5000DBD7E80E11182BE1030E1218D8A41200EC
:100E60001BD082B403D0136A132A01D0136A13462D
:100E7000134682501318FB0B1318826E150E146E56
:100E80004B0E136EBE0EE82EFED7132EFCD7142E7B
:100E9000FAD700D0154A162A0F50155C1650800A52
:100EA000136E1050800A1358D8B01200DAD712000F
:100EB000000E1E6E000E1D6E15041610D8A404D070
:100EC000000E1E6E040E1D6E040E1D24196E000E03
:100ED0001E201A6E33D0000E1C6E000E1B6E22D028
:100EE000FEEC08F0105004E1100E0F5CD8A010D0FA
:100EF0001DC017F0030E186E172A02D0D8901836AE
:100F0000172EFCD713C0D9FF14C0DAFF1850DF1218
:100F1000060E176E300EE82EFED7172EFCD700D027
:100F20001B4A1C2A1CBEDCD7F40E1B5C010E1C588D
:100F3000D8A0D6D7020E1D26000E1E2219501D5C09
:100F40001E50800A176E1A50800A1758D8B0120027
:100F5000C2D70600FACF01F0FBCF02F0E9CF03F0D1
:100F6000EACF04F0E1CF05F0E2CF06F0D9CF07F0E9
:100F7000DACF08F0F3CF09F0F4CF0AF0F6CF0BF098
:100F8000F7CF0CF0F8CF0DF0F5CF0EF0F0A205D0B2
:100F9000F092000E346E010E336E0EC0F5FF0DC0E0
:100FA000F8FF0CC0F7FF0BC0F6FF0AC0F4FF09C042
:100FB000F3FF08C0DAFF07C0D9FF06C0E2FF05C093
:100FC000E1FF04C0EAFF03C0E9FF02C0FBFF01C06C
:100FD000FAFF3592110026EC09F0000E136E000E98
:100FE000126E000E156E010E146EF0EC08F01D0E60
:100FF000126E080E136E73EC08F0000E136E010EE5
:10100000126E000E156E050E146EF0EC08F0690EEF
:10101000126E080E136E73EC08F033043410D8A46B
:1010200009D0000E346E000E336E000E196E010EE4
:10103000186E120081A8F1D7000E196E000EF8D7B5
:101040001EEC09F0CCEC08F015EC09F0000E316E46
:10105000000E326E000E2F6E000E306E310E236EBB
:10106000000E246E2BEC05F0310E1F6E000E206E6C
:101070002F0E216E000E226E3BEC04F03304341070
:10108000D8A4F2D7000E346E000E336E310E236EEC
:10109000000E246E2BEC05F0E7D711C0D9FF12C06B
:1010A000DAFF0FC0E1FF10C0E2FFDE50E618D8A45F
:1010B00015D020EE01F01150D9261250DA2210EE90
:1010C00001F00F50E1261050E222DE50E618D8A4BD
:1010D00005D0000E106E010E0F6E1200000E106E85
:1010E000000E0F6E1200000E176E000E166E10D05E
:1010F00016501224146E17501320156E14C0F6FFEC
:1011000015C0F7FF0800F550B4EC08F0164A172A8E
:1011100016501224146E17501320156E14C0F6FFCB
:1011200015C0F7FF0800F5500009D8B41200E0D749
:101130008492060E0F6E300EE82EFED70F2EFCD7CF
:1011400000D08482060E0F6E300EE82EFED70F2ED2
:10115000FCD700D08492060E0F6E300EE82EFED71C
:101160000F2EFCD700D01200116E11C083FF8186B4
:10117000060E106E300EE82EFED7102EFCD700D0D3
:1011800098EC08F0060E106E300EE82EFED7102EEA
:10119000FCD700D081961200040E936E000E956E5F
:1011A000000E966E000E836E010EE1EC08F0380E14
:1011B000E1EC08F0800EE1EC08F00F0EE1EC08F035
:1011C0001200116E11C083FF819698EC08F0060E94
:1011D000106E300EE82EFED7102EFCD700D0120075
:1011E00012501310D8A403D01450800F02D0145002
:1011F000C00F166E1650E1EC08F01200C282C2B2A7
:10120000FED7C3CF11F0C4CF12F011C00FF012C03F
:1012100010F01200346A336A35903592000EF86E81
:10122000080EF76E000120EF08F09280000EC26EEB
:101230000E0EC16ED90EC06EC2801200F29EF29CDC
:101240009384F18CF092F088F28E1200010EE1ECA2
:0412500008F0120090
:020000040020DA
:08000000FFFFFFFFFFFFFFFF00
:020000040030CA
:0E000000000C1F1EFF8181FF0FC00FE00F409C
:00000001FF
