:0400000066EF00F0B7
:100018002C80D8CF01F0E8CF02F0E0CF03F0FACF80
:1000280004F0FBCF05F0E9CF06F0EACF07F0E1CF07
:1000380008F0E2CF09F0D9CF0AF0DACF0BF0F3CF0E
:100048000CF0F4CF0DF0F6CF0EF0F7CF0FF0F8CF9D
:1000580010F0F5CF11F0F2A411D0F2940B0ED76E78
:10006800DC0ED66E2A502B10D8A404D0000E2B6EAE
:10007800010E03D0000E2B6E000E2A6E11C0F5FF84
:1000880010C0F8FF0FC0F7FF0EC0F6FF0DC0F4FF59
:100098000CC0F3FF0BC0DAFF0AC0D9FF09C0E2FFAA
:1000A80008C0E1FF07C0EAFF06C0E9FF05C0FBFF83
:1000B80004C0FAFF03C0E0FF02C0E8FF01C0D8FF98
:0800C8002C9010000EEF07F070
:10080000004D6963726F636F6E74726F6C61646FB9
:1008100072657300756E646F73207061726120621F
:100820006174657200566F63652074656D203520B4
:100830007365672D0042617461206E6120706F7274
:100840007461006EE36F20636F696E636964656D48
:100850000046696E616C697A61646100417320735E
:0F086000656E686173004C6569747572610000A4
:10087000BFEC06F0D2EC06F019EC07F09494939AD2
:10088000000E166E000E156E000E186E000E176E1E
:10089000F4EC06F0010E156E080E166E66EC06F00E
:1008A00023EC07F0000E296E000E286E2CEC07F0EA
:1008B000000E246E000E256E000E266E000E276EB2
:1008C000250E156E080E166E66EC06F0000E166EFE
:1008D000010E156E000E186E000E176EF4EC06F089
:1008E000140E156E080E166E66EC06F03D0E236EA5
:1008F000E10E226E400EE82EFED7222EFCD7232ECC
:10090000FAD740D02CEC07F02850310FA7EC06F0B6
:1009100028502910D8A40BD0240E166E000E176E86
:10092000000E196E000E186EEFEC05F029D02804A9
:100930002910D8A40BD0240E166E000E176E000ED0
:10094000196E010E186EEFEC05F01AD0020E281881
:100950002910D8A40BD0250E166E000E176E000EAF
:10096000196E000E186EEFEC05F00AD0250E166E0B
:10097000000E176E000E196E010E186EEFEC05F0EA
:10098000284A292A29BEBED7295004E1040E285C32
:10099000D8A0B8D7000E296E000E286E2CEC07F0F8
:1009A000000E166E000E156E000E186E050E176EF8
:1009B000F4EC06F0660E156E080E166E66EC06F088
:1009C000000E166E010E156E000E186E030E176ED9
:1009D000F4EC06F0510E156E080E166E66EC06F07D
:1009E0003D0E236EE10E226E400EE82EFED7222E23
:1009F000FCD7232EFAD72CEC07F0000E166E000E53
:100A0000156E000E186E000E176EF4EC06F0350E23
:100A1000156E080E166E66EC06F03D0E236EE10EA6
:100A2000226E400EE82EFED7222EFCD7232EFAD7B8
:100A3000000E266E000E276E40D02CEC07F02850DA
:100A4000310FA7EC06F028502910D8A40BD0260EA1
:100A5000166E000E176E000E196E000E186EEFEC7B
:100A600005F029D028042910D8A40BD0260E166E24
:100A7000000E176E000E196E010E186EEFEC05F0E9
:100A80001AD0020E28182910D8A40BD0270E166EE3
:100A9000000E176E000E196E000E186EEFEC05F0CA
:100AA0000AD0270E166E000E176E000E196E010E7C
:100AB000186EEFEC05F0284A292A29BEBED7295026
:100AC00004E1040E285CD8A0B8D7000E296E000EF1
:100AD000286E240E126E000E136E260E146E000E7B
:100AE000156E40EC06F012C028F013C029F028045F
:100AF0002910D8A43FD02CEC07F0000E166E000E83
:100B0000156E000E186E030E176EF4EC06F05C0EF8
:100B1000156E080E166E66EC06F0000E166E010ECF
:100B2000156E000E186E030E176EF4EC06F0470EED
:100B3000156E080E166E66EC06F08284819A150E0C
:100B4000236E4B0E226EBE0EE82EFED7222EFCD751
:100B5000232EFAD700D08294818A150E236E4B0E75
:100B6000226EBE0EE82EFED7222EFCD7232EFAD7F9
:100B700000D02ED02CEC07F0000E166E000E156E75
:100B8000000E186E030E176EF4EC06F05C0E156E78
:100B9000080E166E66EC06F0000E166E010E156E4F
:100BA000000E186E020E176EF4EC06F0430E156E72
:100BB000080E166E66EC06F0290E236E960E226E57
:100BC0007F0EE82EFED7222EFCD7232EFAD700F078
:100BD0008294819A000E296E000E286E0CD7000EAA
:100BE000216E000E206E18041910D8A404D0000E37
:100BF000216E040E206E040E20241C6E000E212097
:100C00001D6E33D0000E1F6E000E1E6E22D002EC41
:100C100007F0135004E10A0E125CD8A010D020C0D7
:100C20001AF0030E1B6E1A2A02D0D8901B361A2E09
:100C3000FCD716C0D9FF17C0DAFF1B50DF12060E13
:100C40001A6E300EE82EFED71A2EFCD700D01E4AA0
:100C50001F2A1FBEDCD7F40E1E5C010E1F58D8A041
:100C6000D6D7020E2026000E21221C50205C2150D7
:100C7000800A1A6E1D50800A1A58D8B01200C2D7C6
:100C800014C0D9FF15C0DAFF12C0E1FF13C0E2FFA4
:100C9000DE50E618D8A415D020EE01F01450D92665
:100CA0001550DA2210EE01F01250E1261350E22224
:100CB000DE50E618D8A405D0000E136E010E126E99
:100CC0001200000E136E000E126E1200000E1A6E4D
:100CD000000E196E10D019501524176E1A501620D8
:100CE000186E17C0F6FF18C0F7FF0800F550A7EC04
:100CF00006F0194A1A2A19501524176E1A50162090
:100D0000186E17C0F6FF18C0F7FF0800F55000096D
:100D1000D8B41200E0D78492060E126E300EE82E80
:100D2000FED7122EFCD700D08482060E126E300E33
:100D3000E82EFED7122EFCD700D08492060E126E3B
:100D4000300EE82EFED7122EFCD700D01200146E03
:100D500014C083FF8186060E136E300EE82EFED778
:100D6000132EFCD700D08BEC06F0060E136E300E5F
:100D7000E82EFED7132EFCD700D081961200000E6D
:100D8000956EF29EF28CF294F28AD59CD59AD59605
:100D9000D584D592D5900B0ED76EDC0ED66ED58E3F
:100DA000F28E1200000E936E000E966E000E836E91
:100DB000010EE5EC06F0380EE5EC06F0800EE5ECF1
:100DC00006F00F0EE5EC06F01200146E14C083FF5F
:100DD00081968BEC06F0060E136E300EE82EFED7D1
:100DE000132EFCD700D0120015501610D8A403D033
:100DF0001750800F02D01750C00F196E1950E5EC34
:100E000006F01200C282C2B2FED7C3CF14F0C4CF24
:100E100015F014C012F015C013F012002B6A2A6AE4
:100E20002C902C92000EF86E080EF76E000138EF31
:100E300004F00C0EAF6EAC94AC98AB8E948E948C88
:100E4000AB88AC8A12009280000EC26E0E0EC16E8C
:100E5000D90EC06EC2801200010EE5EC06F0120041
:020000040020DA
:08000000FFFFFFFFFFFFFFFF00
:020000040030CA
:0E000000000C1F1EFF8381FF0FC00FE00F409A
:00000001FF
