:0400000007EF00F016
:0A0008003F8296ED06F0D9EF08F0F4
:100800000042617461206E6120706F727461006ECD
:10081000616F20636F696E636964656D00436F6E1D
:100820006669726D652073756100436164617374FC
:1008300072652073756100446573747261766164DA
:100840006121004361646173747261646100526587
:1008500070697461207375610041732073656E68FF
:1008600061730053656E68610073656E6861005066
:100870006F7274610000000E2C6E000E2B6E27C08C
:10088000D9FF28C0DAFF000EDF6E20EE01F02750FE
:10089000D9262850DA22000EDF6E2BEC09F0000E6C
:1008A000196E000E186E000E1B6E000E1A6EF7EC1D
:1008B00008F0010E186E080E196E2FEC08F007D024
:1008C00081A805D0000E3A6E010E396E120005ECBB
:1008D00009F016BEF5D7165051E10F0E155CD8B0D1
:1008E0004DD0EED7000E196E010E186E000E1B6E65
:1008F000000E1A6EF7EC08F02B50310FACEC08F03C
:100900002B502C10D8A40BD027C019F028C01AF0F7
:10091000000E1C6E000E1B6E54EC07F02DD02B0445
:100920002C10D8A40BD027C019F028C01AF0000E44
:100930001C6E010E1B6E54EC07F01ED0020E2B181D
:100940002C10D8A40DD0010E2724196E000E2820DB
:100950001A6E000E1C6E000E1B6E54EC07F00CD0CD
:10096000010E2724196E000E28201A6E000E1C6E30
:10097000010E1B6E54EC07F02B4A2C2A2CBEB2D76A
:100980002C5004E1040E2B5CD8A0ACD725C01EF07F
:1009900026C01FF027C020F028C021F0F8EC06F098
:1009A0001E501F10D8B443D02BEC09F0000E196E66
:1009B000000E186E000E1B6E040E1A6EF7EC08F097
:1009C0006F0E186E080E196E2FEC08F0000E196EDF
:1009D000010E186E000E1B6E020E1A6EF7EC08F078
:1009E000370E186E080E196E2FEC08F03B503C10B5
:1009F000D8A41200000E3C6E010E3B6E000E166E67
:100A0000080E156E54EC08F0150E2A6E4B0E296E6A
:100A1000BE0EE82EFED7292EFCD72A2EFAD700D0FC
:100A2000000E166E000E156E54EC08F012002BEC42
:100A300009F0000E196E000E186E000E1B6E030EEC
:100A40001A6EF7EC08F0590E186E080E196E2FEC9E
:100A500008F0000E196E010E186E000E1B6E010ECE
:100A60001A6EF7EC08F00F0E186E080E196E2FECC8
:100A700008F012009388000E2E6E000E2D6E000EF0
:100A8000306E000E2F6E000E336E000E346E000EB0
:100A9000316E000E326E29C0D9FF2AC0DAFF000E77
:100AA000DF6E20EE01F02950D9262A50DA22000EFE
:100AB000DF6E2BEC09F0000E196E000E186E000EA2
:100AC0001B6E010E1A6EF7EC08F02A0E186E080E57
:100AD000196E2FEC08F0000E196E010E186E000E44
:100AE0001B6E050E1A6EF7EC08F0690E186E080EF4
:100AF000196E2FEC08F0290E2C6E960E2B6E7F0EC1
:100B0000E82EFED72B2EFCD72C2EFAD700F0330E72
:100B1000256E000E266E11EC06F02BEC09F0000E8F
:100B2000196E000E186E000E1B6E020E1A6EF7EC98
:100B300008F04E0E186E080E196E2FEC08F0000E1D
:100B4000196E010E186E000E1B6E050E1A6EF7EC74
:100B500008F0690E186E080E196E2FEC08F0290EB9
:100B60002C6E960E2B6E7F0EE82EFED72B2EFCD70A
:100B70002C2EFAD700F0310E256E000E266E11ECE9
:100B800006F0330E1E6E000E1F6E310E206E000E2C
:100B9000216EF8EC06F01E501F10D8B48AD7A5ECD1
:100BA00007F01E501F10D8B484D729C0D9FF2AC01F
:100BB000DAFF33C0DFFF20EE01F02950D9262A509A
:100BC000DA2234C0DFFF2BEC09F0000E196E000EA4
:100BD000186E000E1B6E060E1A6EF7EC08F0630E10
:100BE000186E080E196E2FEC08F0000E196E010E2B
:100BF000186E000E1B6E030E1A6EF7EC08F0430E13
:100C0000186E080E196E2FEC08F03D0E2C6EE10EDA
:100C10002B6E400EE82EFED72B2EFCD72C2EFAD7AB
:100C20001200000E286E000E276E25C0D9FF26C0C8
:100C3000DAFF000EDF6E20EE01F02550D926265097
:100C4000DA22000EDF6E2BEC09F0000E196E000E9A
:100C5000186E000E1B6E000E1A6EF7EC08F0010EF7
:100C6000186E080E196E2FEC08F005EC09F016BE90
:100C7000FCD7165051E10F0E155CD8B04DD0F5D70A
:100C8000000E196E010E186E000E1B6E000E1A6E0D
:100C9000F7EC08F02750310FACEC08F02750281083
:100CA000D8A40BD025C019F026C01AF0000E1C6E77
:100CB000000E1B6E54EC07F02DD027042810D8A48A
:100CC0000BD025C019F026C01AF0000E1C6E010EC4
:100CD0001B6E54EC07F01ED0020E27182810D8A463
:100CE0000DD0010E2524196E000E26201A6E000E5E
:100CF0001C6E000E1B6E54EC07F00CD0010E252468
:100D0000196E000E26201A6E000E1C6E010E1B6E50
:100D100054EC07F0274A282A28BEB2D7285005E10C
:100D2000040E275CD8B01200ABD712000600FACF31
:100D300007F0FBCF08F0E9CF09F0EACF0AF0E1CFE6
:100D40000BF0E2CF0CF0D9CF0DF0DACF0EF0F3CFED
:100D50000FF0F4CF10F0F6CF11F0F7CF12F0F8CF7C
:100D600013F0F5CF14F0F0A225D0F092000E3E6EF5
:100D7000010E3D6E000E3C6E010E3B6E000E3C6E91
:100D8000000E3B6E020E026E580E016E72EC08F001
:100D9000090E066E1E0E056EE40EE82EFED7052E19
:100DA000FCD7062EFAD700D0000E026E000E016EA0
:100DB00072EC08F014C0F5FF13C0F8FF12C0F7FF83
:100DC00011C0F6FF10C0F4FF0FC0F3FF0EC0DAFF32
:100DD0000DC0D9FF0CC0E2FF0BC0E1FF0AC0EAFF63
:100DE00009C0E9FF08C0FBFF07C0FAFF3F921100EE
:100DF0001EC015F01FC016F020C017F021C018F05B
:100E000009EC08F015C022F016C023F022042310CC
:100E1000D8A423D02BEC09F0000E196E000E186E2A
:100E2000000E1B6E030E1A6EF7EC08F0590E186ECA
:100E3000080E196E2FEC08F0000E196E010E186ED8
:100E4000000E1B6E030E1A6EF7EC08F0130E186EF0
:100E5000080E196E2FEC08F022D02BEC09F0000ED2
:100E6000196E000E186E000E1B6E030E1A6EF7EC54
:100E700008F0590E186E080E196E2FEC08F0000ECF
:100E8000196E010E186E000E1B6E010E1A6EF7EC35
:100E900008F00F0E186E080E196E2FEC08F022C025
:100EA0001EF023C01FF01200000E246E000E236EF1
:100EB0001B041C10D8A404D0000E246E040E236E54
:100EC000040E23241F6E000E2420206E33D0000E4B
:100ED000226E000E216E22D005EC09F0165004E1BE
:100EE000100E155CD8A010D023C01DF0030E1E6E8E
:100EF0001D2A02D0D8901E361D2EFCD719C0D9FF4E
:100F00001AC0DAFF1E50DF12060E1D6E300EE82EDC
:100F1000FED71D2EFCD700D0214A222A22BEDCD7C4
:100F2000F40E215C010E2258D8A0D6D7020E23263B
:100F3000000E24221F50235C2450800A1D6E205076
:100F4000800A1D58D8B01200C2D72BEC09F0000E51
:100F5000196E000E186E000E1B6E010E1A6EF7EC65
:100F600008F01D0E186E080E196E2FEC08F0000E1A
:100F7000196E010E186E000E1B6E050E1A6EF7EC40
:100F800008F0690E186E080E196E2FEC08F03D047B
:100F90003E10D8A409D0000E3E6E000E3D6E000E2D
:100FA0001F6E000E1E6E120081A8F1D7000E1F6E7C
:100FB000010EF8D711EC09F023EC09F0C4EC08F0AD
:100FC0001AEC09F0000E376E000E386E000E356E0A
:100FD000000E366E370E296E000E2A6E3AEC05F0C2
:100FE000370E256E000E266E350E276E000E286E0B
:100FF0003BEC04F039043A10D8A4F2D7000E3A6E54
:10100000000E396E370E296E000E2A6E3AEC05F08E
:10101000E7D717C0D9FF18C0DAFF15C0E1FF16C027
:10102000E2FFDE50E618D8A415D020EE01F01750EC
:10103000D9261850DA2210EE01F01550E12616508C
:10104000E222DE50E618D8A405D0000E166E010E7E
:10105000156E1200000E166E000E156E1200000EB8
:101060001D6E000E1C6E10D01C5018241A6E1D50E0
:1010700019201B6E1AC0F6FF1BC0F7FF0800F550C1
:10108000ACEC08F01C4A1D2A1C5018241A6E1D5086
:1010900019201B6E1AC0F6FF1BC0F7FF0800F550A1
:1010A0000009D8B41200E0D715B002D0BD9801D025
:1010B000BD88D8901630186E1530176E173A17463F
:1010C000BD501718DF0B1718BD6E15C017F016C0EE
:1010D00018F0D89018321732D890183217321750AB
:1010E000BE6E120001B002D0BD9801D0BD88D8906C
:1010F0000230046E0130036E033A0346BD500318FC
:10110000DF0B0318BD6E01C003F002C004F0D890DD
:1011100004320332D890043203320350BE6E120000
:101120008492060E156E300EE82EFED7152EFCD7D3
:1011300000D08482060E156E300EE82EFED7152ED6
:10114000FCD700D08492060E156E300EE82EFED726
:10115000152EFCD700D01200176E17C083FF8186B2
:10116000060E166E300EE82EFED7162EFCD700D0D7
:1011700090EC08F0060E166E300EE82EFED7162EF6
:10118000FCD700D081961200040E936E000E956E6F
:10119000000E966E000E836E010EE8EC08F0380E1D
:1011A000E8EC08F0800EE8EC08F00F0EE8EC08F030
:1011B00012003E6A3D6A3C6A3B6A3A6A396A3F906D
:1011C0003F92000EF86E080EF76E0001DAEF07F09E
:1011D000176E17C083FF819690EC08F0060E166E0E
:1011E000300EE82EFED7162EFCD700D01200185075
:1011F0001910D8A403D01A50800F02D01A50C00F73
:101200001C6E1C50E8EC08F01200C282C2B2FED77D
:10121000C3CF17F0C4CF18F017C015F018C016F0E0
:1012200012009494040ECA6ECB683F0EBD6E000E81
:10123000BE6E12009280000EC26E0E0EC16ED90EEE
:10124000C06EC2801200F29EF29C9384F18CF092E8
:0E125000F088F28E1200010EE8EC08F0120099
:020000040020DA
:08000000FFFFFFFFFFFFFFFF00
:020000040030CA
:0E000000000C1F1EFF8181FF0FC00FE00F409C
:00000001FF
